:020000040800F2
:10000000D006002089010008910100089301000832
:100010009501000897010008990100080000000000
:100020000000000000000000000000009B0100082C
:100030009D010008000000009F010008A1010008C8
:10004000A3010008A3010008A3010008A301000800
:10005000A3010008A3010008A3010008A3010008F0
:10006000A3010008A3010008A3010008A3010008E0
:10007000A3010008A3010008A3010008A3010008D0
:10008000A3010008A3010008A3010008A3010008C0
:10009000A3010008A3010008A3010008A3010008B0
:1000A000A3010008A3010008A3010008A3010008A0
:1000B000450A0008A3010008A3010008A3010008E5
:1000C000A3010008A3010008A3010008A301000880
:1000D000A3010008A3010008A3010008A301000870
:1000E000A3010008A3010008A301000800F002F822
:1000F00000F03AF80AA090E8000C82448344AAF188
:100100000107DA4501D100F02FF8AFF2090EBAE885
:100110000F0013F0010F18BFFB1A43F0010318473B
:100120005410000074100000103A24BF78C878C141
:10013000FAD8520724BF30C830C144BF04680C60ED
:10014000704700000023002400250026103A28BF35
:1001500078C1FBD8520728BF30C148BF0B60704739
:100160001FB51FBD10B510BD00F031F81146FFF7E7
:10017000F7FF00F0D6FC00F04FF803B4FFF7F2FFF2
:1001800003BC00F057F800000948804709480047C1
:10019000FEE7FEE7FEE7FEE7FEE7FEE7FEE7FEE737
:1001A000FEE7FEE704480549054A064B7047000094
:1001B00081090008ED000008D0000020D0060020D2
:1001C000D0020020D002002070477047704775466B
:1001D00000F02CF8AE4605006946534620F00700B3
:1001E000854618B020B5FFF7DDFFBDE820404FF091
:1001F00000064FF000074FF000084FF0000B21F011
:100200000701AC46ACE8C009ACE8C009ACE8C009DD
:10021000ACE8C0098D46704710B50446AFF30080C6
:100220002046BDE81040FFF7A8BF00000048704717
:100230007000002001491820ABBEFEE72600020036
:10024000704700002848806940F20521084326498C
:1002500088610846406940F00100486108464068EE
:1002600020F4404048600846406840F40040486040
:1002700000201E4988601E4808611E484861082009
:10028000C8600846806840F0A00088600846806822
:1002900040F4A06088600846806840F001008860F3
:1002A00088151349483908606FF07F4010493C3980
:1002B00008604FF4E0000E49203908600E480C49F0
:1002C00018390860E620091F08600C4808494439BD
:1002D00008600846006820F460200860084600684E
:1002E00040F4002008607047001002400000024007
:1002F0004C240140400000202088410A00011000E9
:1003000008B51648006840F0010014490860002054
:10031000009002E00098401C009042F2107100989A
:100320008842F7DB0D48006840F008000B49086080
:1003300000BF0A48006800F008000028F9D107480B
:10034000006840F004000549086000BF03480068E9
:1003500000F004000028F9D108BD00000824014085
:1003600001F11002012393400361704709480068BE
:1003700020F47000074908600846006840F4000057
:10038000086004480830006840F400500149083112
:1003900008607047040C0140014800787047000075
:1003A0003F00002001490870704700003F00002016
:1003B00010B514214FF496621F4B1B68C3F34030F5
:1003C0001E4B1B78984218D01D4B1B885B1C9BB2A0
:1003D0001B4C2380142B2DDB184B1870002323801B
:1003E00020B9184C2380184C237023E0164B1B783F
:1003F00003BB0123154C23701CE00023104C238009
:10040000C0B9104B1B884EF66024A34204DA0D4B92
:100410001B885B1C0B4C23800B4B1B7853B9094B7F
:100420001B88B3F5966F05DB0023084C237001236E
:10043000054C237010BD0000080C0140380000205E
:100440003A0000203C0000203E0000203F00002039
:100450000848806940F20D21084306498861084632
:10046000C06940F00700C8610846406940F00100DB
:1004700048617047001002401FB50B48406A0A49A6
:10048000096A094AD269084BDB68CDE90032CDE937
:100490000210054883684268016800F083F900F0A3
:1004A0009FF800F039F91FBD000000202DE9FF5F23
:1004B000002005E0424931F810102DF81010401CC2
:1004C0000828F7DB3F48006841F28831884202D2B1
:1004D000684600F0EDF83B480068401C3949086068
:1004E000FFF75AFF28B900203749088037490880AC
:1004F00039E0684600F088F88046404600F07AFC13
:1005000083465946324800F060F982464FF4E1696B
:10051000B8F5AF6F02DC18F5AF6F01DA40F2DC59C5
:10052000504600F04BFCA9EB0006504600F046FC9C
:1005300000EB0907002E00DA002626480088B042AA
:1005400001DA24480688002F00DA002721480088B5
:10055000B84201DA1F48078800F0DEF81B490E8018
:1005600019490F8000BF194800881B490988441A9F
:10057000502C00DD502414F1500F01DA6FF04F04BD
:10058000154800882044144908800F480088134902
:100590000988451A502D00DD502515F1500F01DA5C
:1005A0006FF04F050D48008828440C490880084624
:1005B00001880948008800F0DDF8BDE8FF9F0000D1
:1005C00040000020300000202E0000202C000020E1
:1005D000000000202C080040280000202A000020F5
:1005E000002009E040F6FF71054A22F810100021B2
:1005F000044A22F81010401C0828F3DB7047000062
:1006000050000020600000202DE9F0430446002542
:100610000023002029E034F810C0DFF8848038F887
:100620001020DFF8808038F81070974203DC02F168
:1006300001081FFA88F7ACEB02084FF47A7908FB3F
:1006400009F8A7EB020998FBF9F1002900DA00216B
:10065000B1F57A7F01DD4FF47A714FF47A7800FBBF
:1006600008F801FB08550B44401C0828D3DB40F672
:10067000AC56B3F5FA6F0ADD0BB11A4600E0012261
:1006800095FBF2F1881B084A1060BDE8F08306482C
:100690000068002802DB40F69800F6E70348F4E71C
:1006A00050000020600000203400002068F7FFFFA9
:1006B0000246002012E032F810100A4B33F81030D6
:1006C0008B4202DD074B23F81010074B33F8103034
:1006D0008B4202DA044B23F81010401C0828EADB96
:1006E00070470000500000206000002008480068AB
:1006F0006FF313000649086008460068054908437F
:1007000003490860881402490C31086070470000F2
:10071000040C01403333030010B5012444B120021E
:1007200013490860092112481038FFF719FE08E044
:1007300008210F481038FFF713FE4FF400700C49E2
:10074000086000BF012444B1A002094908600B21E0
:1007500007481038FFF704FE08E00A210448103863
:10076000FFF7FEFD4FF400600149086000BF10BDB7
:10077000100C014070B505460C460948028800215E
:10078000284600F0C5F90649083108800448028867
:100790000021204600F0BCF901490C31088070BDF1
:1007A0002C080040F0B505ACF0CC016042608360DD
:1007B000C4604FF0000CC0F810C0C0F814C0C0F8FE
:1007C00018C0C56106624762F0BD2DE9F84F0446C6
:1007D0000E463046A16900F057FC8146E16800F002
:1007E0002BFA07464FF07E50E16900F04DFC83463E
:1007F000394600F04BFB81466169E06900F046FB39
:100800008246494600F0AAF960613146206800F04E
:100810003DFB00903146606800F038FB8246E1689D
:1008200000F034FB8146216900F098F905466169C2
:10083000A06800F02BFB81462946009800F08EF955
:100840008246494600F08AF980464046616A00F0D7
:10085000E9FB08D2D4F824800021304600F0E2FA07
:1008600010D225610EE04046216A00F0DBFA08D282
:10087000D4F820800021304600F0D4FB02D225615C
:1008800000E02561A6614046BDE8F88F00200149DF
:10089000086070470008014010B500F001F810BD75
:1008A0000CB50020019000903348006840F480307F
:1008B0003149086000BF3048006800F40030009003
:1008C0000198401C0190009818B90198B0F5A06FEC
:1008D000F1D12948006800F4003010B101200090E7
:1008E00001E0002000900098012843D123480068CF
:1008F00040F01000214908600846006820F0070019
:1009000008600846006840F0020008601A48406825
:10091000194948600846406848600846406840F405
:10092000806048600846406820F47C1048600846B3
:10093000406840F4E81048600846006840F0807065
:10094000086000BF0C48006800F000700028F9D073
:100950000948406820F0030007494860084640689D
:1009600040F00200486000BF0348406800F00C00FF
:100970000828F9D10CBD0000001002400020024000
:1009800010B51348006840F001001149086008469E
:100990004068104908400E494860084600680E4902
:1009A00008400B4908600846006820F48020086071
:1009B0000846406820F4FE0048604FF41F0088603D
:1009C000FFF76AFF4FF000600449086010BD0000A7
:1009D000001002400000FFF8FFFFF6FE08ED00E007
:1009E00010B541F61F404FF08041088509208885E9
:1009F0008007808940F0010088810846008840F027
:100A0000010008801C200121002807DA0A07140EC3
:100A10000A4A00F00F031B1FD45403E00A07130E09
:100A2000074A135400BF1C20012181404209920053
:100A300002F1E022C2F8001100BF10BD18ED00E085
:100A400000E400E010B54FF08040008A00F00100A3
:100A500058B14FF08040008A20F001004FF08041F3
:100A60000882FFF7A5FCFFF721FD10BD41F61F40EE
:100A70000C4908800420091D08800A482438008891
:100A800020F070000749243908800846008840F0AB
:100A900020000880081F008840F00100091F08801E
:100AA00070470000280400401748006820F07F408D
:100AB000154908600846006840F03B400860002087
:100AC0001249088040F69F70091D088000200F49D8
:100AD000103908800846008840F068000880084601
:100AE000008840F4D0400880112008490839088067
:100AF0008120064928390880002004490C310880EB
:100B0000091D088070470000000C014028080040C3
:100B100003468B4200DA0B46934200DD134698B23F
:100B20007047FFF795FCFFF7B1FEFFF7DFFDFFF71A
:100B30001DFCFFF7B9FFFFF785FBFFF797FFFFF7F6
:100B4000DFFBFFF74DFDFFF797FCFFF749FF0020A4
:100B5000FFF728FC00E030BFFDE7000090EA010F3E
:100B600048BF81F0004100F19682421A3CBF801AD2
:100B700089184FEAD0524FF07F4C1CEA410FA2EB8C
:100B8000D15318BF9CEA026F00F03B804FF0004C3D
:100B90004CEA00204CEA012121FA03FC10EB0C0C7A
:100BA0001ED202F1FF325FEA1C2040EBC25038BF78
:100BB00070471CF07F0F4FEA400C18BFBCF17F4F0D
:100BC00038BF7047C3F12003994008BF20F00100EF
:100BD000BCF17F4F38BF7047A0F1C04000F01DBA94
:100BE0004FEA3C00000A40EBC25028BF1CF0FF0F48
:100BF0004FEA400CE6D018BFBCF17F4F38BF7047BA
:100C0000EAE79CEA026F05D010EA5C0F08BF00F02B
:100C10000040704710B500F0BAF900BF64FBBE3E5B
:100C2000401058BFC0F14040491058BFC1F1404189
:100C30008142EFF3008070474FF47F0C1CEAD01222
:100C40001EBF1CEAD11392EA0C0F93EA0C0F00F0BE
:100C5000858090EA010F48BF42F4807240F4000C96
:100C600041F400002CF07F4120F07F4000B581422C
:100C7000A2EB03020FF2081CACEB504EC0F10000D7
:100C80009EF800E04FEA4E0E00FB0EFC38BF490014
:100C90004FEA2C1C02F5FA020CFB0EF34FEACE1EB3
:100CA0004FEA112C4FEAC1210EEB635E42EB224268
:100CB0000EFB0CFC4FEA1C5300FB03114FEA112CF6
:100CC0004FEA01310EFB0CFC4FEADC4C00FB0C112F
:100CD000C14228BF09184CEB03335DF804EB10EB5D
:100CE000410143EBC250B2F57C0F38BF704729D5A4
:100CF00012F0F00F1CBF00F1C04000F00040704740
:100D0000008182838485868788898B8C8D8E8F91E4
:100D10009293959697999A9C9D9FA0A2A3A5A7A808
:100D2000AAACAEB0B2B3B5B7B9BCBEC0C2C5C7C934
:100D3000CCCED1D4D7D9DCDFE2E6E9ECF0F3F7FA98
:100D4000FE0000004FEA400C0CF1807CBCF17E4FAD
:100D500028BF7047B0F1C04000F05FB990EA010FC2
:100D60000CEAD11348BF42F48072624538BF634534
:100D700007D213F47F0F16D080EA010000F0004084
:100D8000704710B500F003F9097EFC3E00F005B88D
:100D900080EA010000F00040704780EA010000F0A6
:100DA000004000F03AB912F47F0F04BF02487047C8
:100DB00080EA010000F031B90000C07F41000B0E55
:100DC000D3F19E0208D950F400034FEA032323FA1B
:100DD00002F048BF4042704710B500F0D8F800BF9D
:100DE00049922480002070476FF0004282EA200080
:100DF0007047000010F0004148BF4042B0FA80F355
:100E000010FA03F2C3F19D030BD051EAC35101EB79
:100E10001220530638BF704700F1010008BF20F0D0
:100E20000100704750EA010C00F113801CF5000F1F
:100E300058BFBCF5000F01D48842704707D710F5A2
:100E4000000F58BF11F5000F15D488427047894232
:100E500070471CF5000F04D5BCF5000FF7D5814293
:100E600070474FF0807C1CEB400F38BF1CEB410FEC
:100E700001D28142704710B500F089F892244900F0
:100E80004FF000504FF08051FFF7CABE4FF47F0C77
:100E90001CEAD0121EBF1CEAD11392EA0C0F93EA8F
:100EA0000C0F00F0478090EA010F48BF42F48072B7
:100EB0004FF0004C4CEA00204CEA012102EB030207
:100EC000A0FB0113A2F50002002918BF43F00103A3
:100ED0005B0028BF4FEA330342EB22425FEA132C48
:100EE0004CEBC2502EBFBCEB436FB2F57C0F70478A
:100EF0004FEA036CBCF1004F08BF20F00100B2F5CF
:100F00007C0F38BF70470BD582F0FF0212F5803F8F
:100F1000C8BF704700F1C040D8BF00F00040704724
:100F200000F5000C5FEA4C0C48BF7047B0F1C040C0
:100F300000F073B890EA010F0CEAD11348BF42F4F5
:100F40008072624538BF634504D280EA010000F038
:100F50000040704710B500F01AF800BF8900013E4C
:100F600000F007B800F009B85FEA410C5FEA1C6CBA
:100F700008D080EA010000F050B85FEA400C5FEA58
:100F80001C6CF6D14FF00040A0F5800070470EF1C8
:100F9000020E2EF0030E5EF8044B244204D44FEAF6
:100FA0004102B2F17F4F11D84FEA4003B3F17F4FB6
:100FB0000CD80ED14FEAD07CB2F17F4F0CEB4C0C29
:100FC0000CF1020C08BF4CEBD17C04E04FF0080C94
:100FD00001E04FEAD17C0CEB4C0324FA03F404F05B
:100FE0000704B4F1040C06D20EEB840CBDE81040EB
:100FF0004CF0010C6047DFE80CF0070802024FF0EC
:101000000040A0F5800010BD0846420018BFD2F194
:10101000807288BF00F0004010BDFF2141EAD0502F
:10102000C005704751EA000C00F113801CF5000F59
:1010300058BFBCF5000F01D48142704707D711F5A6
:10104000000F58BF10F5000F15D481427047894238
:1010500070471CF5000F04D5BCF5000FF7D588428A
:1010600070474FF0807C1CEB410F38BF1CEB400FEA
:1010700001D28842704780EA010081EA000180EADB
:101080000100FFF7F8BE000090EA010F48BF81F0B1
:1010900000413FF56AAD421A04D882F00042A0EB4D
:1010A000020011444FEAD0524FF07F4C1CEA410F2E
:1010B000A2EBD15318BF9CEA026F4AD04FF0004C0C
:1010C0004CEA00204CEA012121FA03FCB0EB0C0CA5
:1010D0000FD412F0FE0F36D05FEA4C001DD500127F
:1010E00040EBC25038BF70471CF03F0F18BF70472D
:1010F0000BE0A2F101025FEA1C2040EBC25038BFB6
:1011000070471CF07F0F18BF7047C3F12003994050
:1011100014BF401E20F00100704780084FEA1223E0
:1011200008BF7047B0FA80FCA2EB0C02CCF1280C8F
:1011300060FA0CF093EA122F04BF00EBC250704724
:101140004FEAC3707047130A5FEADC1008BF7047AC
:10115000F6E79CEA026F04D010EA5C0F08BF00209B
:10116000704710B5FFF713FF40DFF63E81F00040F7
:1011700070470000941100080000002040000000AB
:1011800028010008D411000840000020900600004B
:10119000440100086666E63F000000008FC2753D0E
:1011A0006F12833A00000000000000000000000001
:1011B000AE47613F000048C4000048440000000002
:1011C000000000000000000000000000010000001E
:0411D000000000001B
:040000050800018965
:00000001FF
